:020000040800F2
:1000000000800020DD0E0008730200087502000861
:1000100077020008790200087B0200080000000057
:100020000000000000000000000000007D02000849
:100030007F0200080000000081020008830200081F
:100040002D0F00082D0F00082D0F00082D0F0008A0
:100050002D0F00082D0F00082D0F00082D0F000890
:100060002D0F00082D0F00082D0F00082D0F000880
:100070002D0F00082D0F00082D0F00082D0F000870
:100080002D0F00082D0F00082D0F00082D0F000860
:10009000000000002D0F00082D0F00082D0F000894
:1000A0002D0F00082D0F00082D0F00082D0F000840
:1000B0002D0F00082D0F00082D0F00082D0F000830
:1000C0002D0F00082D0F00082D0F00082D0F000820
:1000D0002D0F00082D0F00082D0F00082D0F000810
:1000E0002D0F00082D0F00082D0F00082D0F000800
:1000F0002D0F000800000000000000002D0F000878
:100100002D0F00082D0F00082D0F00082D0F0008DF
:100110002D0F00082D0F00082D0F00082D0F0008CF
:100120002D0F00082D0F00082D0F00082D0F0008BF
:080130002D0F00082D0F00083F
:100138000348044B834202D0034B03B1184770476E
:100148001000002010000020000000000548064BA9
:100158001B1AD90F01EBA301491002D0034B03B1BD
:100168001847704710000020100000200000000011
:1001780010B5064C237843B9FFF7DAFF044B13B1E7
:100188000448AFF300800123237010BD1000002045
:1001980000000000880F000808B5054B1BB1054991
:1001A8000548AFF30080BDE80840FFF7CFBF00BFA8
:1001B8000000000014000020880F000872B6FEE757
:1001C80000B59BB04822002108A800F0ACFE00232F
:1001D8000293039304930593069307931D490A68B2
:1001E80022F4C06242F400720A600A6802F4C06233
:1001F8000192019A012208924FF4803209920A93DF
:1002080002231393032314931023159306231693A1
:100218004FF4003317934FF0005319934FF00073C6
:10022800189308A800F056F980B94F2302930323C6
:10023800039300230493059306930793022102A8CE
:1002480000F07AFC20B91BB05DF804FBFFF7B6FF9D
:10025800FFF7B4FF0004005808B500F011FEFFF7DF
:10026800AFFF00F001F8FEE77047FEE7FEE7FEE7A4
:10027800FEE7FEE770477047704708B500F016FEC6
:1002880008BD7047024A136843F4807313607047CF
:1002980000040058024B186800F4C060704700BFA3
:1002A8000004005830B589B004468C462A4B93E8C0
:1002B80003000690ADF81C1003F1080292E8030051
:1002C8000490ADF8141001AD103393E8070085E8E9
:1002D8000700BCF5007F07D0002314E008AA02EB52
:1002E800830353F81C5C1EE00023022B08D808AADD
:1002F80002EB430232F8082CA242EFD20133F4E7B2
:10030800002510E00133022B0CD808AA02EB4302A7
:1003180032F8102CA242F5D308AA02EB830353F853
:100328001C5C00E000250D4A136823F007032B43EB
:10033800136000F0C7FD0446084B1B6803F0070371
:10034800AB4206D000F0BEFD001B0228F4D9032002
:1003580000E0002009B030BDA00F000800400058A0
:1003680010B5C0F303100C4B53F820404FF0B043C6
:10037800D3F8083103F00F03084A52F82330B4FBCE
:10038800F3F4FFF787FF0146054BA3FB0434A00CE9
:10039800FFF788FF10BD00BFBC0F0008FC0F000866
:1003A80083DE1B434FF0B0439968DB6803F0030317
:1003B80011F00C010AD00C2906D0042947D00829CD
:1003C8003BD00022104626E0012BF6D14FF0B04377
:1003D8001B6813F008030DD04FF0B0431B6813F0EF
:1003E800080324D14FF0B042D2F894202E4A52F894
:1003F80023200EE04FF0B042126812F0080F12D11D
:100408004FF0B043D3F89430C3F30323264A52F88D
:100418002320D1B100204FF0B0439B6803F00C03B8
:100428000C2B1AD070474FF0B0421268EEE74FF02D
:10043800B0431B68C3F30313D8E74FF0B0431A68FF
:1004480012F4801206D11948E5E71046E3E70022C6
:100458001748E0E700221648DDE74FF0B043DB68B5
:1004680003F00303022B09D0032B08D14FF0B0434C
:100478001B6813F4801F15D10C4A00E00C4A4FF09A
:10048800B041CB68C3F3062303FB02F2CB68C3F386
:1004980002130133B2FBF3F2C868400F0130B2FB1C
:1004A800F0F0BFE7024AEAE7BC0F00080048E8019D
:1004B8000024F40008B5FFF775FF4FF0B0439B68C0
:1004C800C3F30313024A52F82330B0FBF3F008BD1C
:1004D800FC0F0008002800F01183F8B504464FF01F
:1004E800B0439D6805F00C05DE6806F00306036856
:1004F80013F0200F2AD0002D65D00C2D61D0236A6F
:10050800002B00F0BF804FF0B042136843F00103A6
:10051800136000F0D7FC07464FF0B0431B6813F098
:10052800020F00F0A7804FF0B0431A6842F00802AB
:100538001A601A6822F0F002A16A0A431A60616A16
:100548005A6822F47F4242EA01225A60236813F073
:10055800010F00F0B580082D00F0AE800C2D00F0E2
:10056800A8804FF0B042136823F48013A1680B43AE
:1005780013606368B3F5803F00F0C480B3F5041FCF
:1005880000F0C5804FF0B0431A6822F480321A6038
:100598001A6822F400121A606368002B00F0C28007
:1005A80000F090FC07464FF0B0431B6813F4003F7F
:1005B80040F0868000F086FCC01B6428F3D9032035
:1005C800A9E2012E9BD1236A002B00F09982A06A30
:1005D8004FF0B0431B6813F0080F29D04FF0B04319
:1005E8001B6803F0F00398422AD9FFF7B9FE0028E8
:1005F80040F088824FF0B0431A6842F008021A604F
:100608001A6822F0F002A16A0A431A60616A5A68FD
:1006180022F47F4242EA01225A60FFF74BFFBA4BAD
:100628001860BA4B186800F003FC00288ED072E2FC
:100638004FF0B043D3F894301B0903F0F003D2E72E
:100648004FF0B0431A6842F008021A601A6822F0A4
:10065800F002A16A0A431A60616A5A6822F47F426A
:1006680042EA01225A60A06AFFF77AFE0028D4D035
:10067800012050E200F026FCC01B02287FF64CAF98
:10068800032048E24FF0B042136823F001031360DF
:1006980000F018FC07464FF0B0431B6813F0020F38
:1006A8003FF454AF00F00EFCC01B0228F3D903201E
:1006B80031E2032E7FF455AF6368002B00F02482EB
:1006C800236813F0020F56D0042D3DD00C2D39D0DD
:1006D8002369002B00F08A804FF0B042136843F47E
:1006E8008073136000F0EEFB06464FF0B0431B68C2
:1006F80013F4806F36D100F0E5FB801B0228F4D993
:10070800032008E2136843F48033136044E74FF092
:10071800B0431A6842F400121A601A6842F4803230
:100728001A6039E700F0CEFB07464FF0B0431B686C
:1007380013F4003FC4D000F0C5FBC01B6428F4D9F3
:100748000320E8E1022EC3D12369002B00F0DE81EB
:1007580061694FF0B042536823F0FE4343EA0163F6
:10076800536008E061694FF0B042536823F0FE43DC
:1007780043EA01635360236813F0080F7ED0A3692E
:10078800002B62D04FF0B043D3F89430E16903F006
:100798001002914211D003F00302022A00F0B8813E
:1007A80013F0010F38D14FF0B042D2F8943023F053
:1007B8001003E1690B43C2F894304FF0B042D2F80D
:1007C800943043F00103C2F8943000F07BFB0646F6
:1007D8004FF0B043D3F8943013F0020F4ED100F02D
:1007E80071FB801B1128F3D9032094E14FF0B0422C
:1007F800136823F48073136000F064FB06464FF01F
:10080800B0431B6813F4806FB5D000F05BFB801B0E
:100818000228F4D903207EE14FF0B042D2F8943098
:1008280023F00103C2F8943000F04CFB06464FF069
:10083800B043D3F8943013F0020FB4D000F042FB69
:10084800801B1128F3D9032065E14FF0B042D2F89C
:10085800943023F00103C2F8943000F033FB0646CD
:100868004FF0B043D3F8943013F0020F06D000F0E5
:1008780029FB801B1128F3D903204CE1236813F0CE
:10088800040F00F0B880224B1B6813F4807F10D14E
:10089800FFF7F8FC00F016FB06461D4B1B6813F427
:1008A800807F06D100F00EFB801B0228F5D90320BB
:1008B80031E1E368002B68D0852B01D0052B07D1E7
:1008C8004FF0B042D2F8903043F00403C2F89030B1
:1008D80000F0F8FA06464FF0B042D2F8903043F0F4
:1008E8000103C2F890304FF0B043D3F8903013F0C2
:1008F800020F0FD100F0E6FA801B41F288339842CC
:10090800F1D9032007E100BF0800002004000020FF
:1009180000040058E368812B01D0852B1AD100F020
:10092800D1FA06464FF0B042D2F8903043F0800337
:10093800C2F890304FF0B043D3F8903013F4006F02
:1009480059D100F0BFFA801B41F288339842F1D99F
:100958000320E0E000F0B6FA06464FF0B042D2F8C5
:10096800903023F08003C2F890304FF0B043D3F8B2
:10097800903013F4006F3ED000F0A4FA801B41F2CF
:1009880088339842F1D90320C5E000F09BFA064667
:100998004FF0B042D2F8903023F08003C2F8903084
:1009A8004FF0B043D3F8903013F4006F08D000F044
:1009B80089FA801B41F288339842F1D90320AAE0D2
:1009C80000F080FA06464FF0B042D2F8903023F09B
:1009D8000103C2F890304FF0B043D3F8903013F0D1
:1009E800020F08D000F06EFA801B41F2883398425B
:1009F800F1D903208FE0E36A002B00F08B800C2DE7
:100A080060D0022B16D04FF0B042136823F08073E9
:100A1800136000F057FA04464FF0B0431B6813F018
:100A2800007F48D14FF0B042D168414B0B40D360B2
:100A3800002070E04FF0B042136823F08073136019
:100A480000F040FA05464FF0B0431B6813F0007FF2
:100A58002AD14FF0B042D36836491940236B606BF6
:100A68000343A06B43EA0023E06B0343206C03437A
:100A7800606C03431943D160136843F080731360BB
:100A8800D36843F08053D36000F01CFA04464FF05B
:100A9800B0431B6813F0007F3ED100F013FA001B2F
:100AA8000A28F4D9032036E000F00CFA401B0A2883
:100AB800C9D903202FE000F005FA001B0A28ABD99A
:100AC800032028E0012B29D04FF0B043DB6803F066
:100AD8000301226B914223D103F07002616B8A42B9
:100AE80020D103F4FE42A16BB2EB012F1CD103F01D
:100AF8006043626C934219D100200CE001207047DA
:100B0800012008E0012006E0012004E0012002E0C5
:100B1800012000E00020F8BD0020FCE70120FAE7F2
:100B28000120F8E70120F6E70120F4E70120F2E7C9
:100B3800FCFFFEEE8C80C111002800F0048170B526
:100B48000C460546824B1B6803F007038B4227D3EC
:100B58002B6813F0020F39D12B6813F0400F4DD1D9
:100B68002B6813F0040F65D12B6813F0080F79D1A7
:100B78002B6813F0010F00F0C1806B68022B00F0A6
:100B88008B80032B00F09080002B40F095804FF075
:100B9800B042126812F0020F40F094800120D1E0B8
:100BA8006B4A136823F007030B43136000F08AF9BC
:100BB8000646674B1B6803F00703A342C8D000F042
:100BC80081F9801B0228F4D90320BBE0AB684FF001
:100BD800B0418A6822F0F00213438B6000F072F98A
:100BE80006464FF0B0439B6813F4803FB4D100F041
:100BF80069F9801B0228F4D90320A3E069694FF042
:100C0800B042D2F8083123F00F0343EA1113C2F8B7
:100C1800083100F057F906464FF0B043D3F80831D1
:100C280013F4803F9CD100F04DF9801B0228F3D9C2
:100C3800032087E0EB684FF0B0418A6822F4E06255
:100C480013438B6000F03EF906464FF0B0439B68B3
:100C580013F4003F88D100F035F9801B0228F4D93D
:100C680003206FE029694FF0B042936823F4605382
:100C780043EAC103936000F025F906464FF0B043FC
:100C88009B6813F4802F7FF473AF00F01BF9801B6F
:100C98000228F3D9032055E04FF0B042126812F44D
:100CA800003F0FD101204DE04FF0B042126812F022
:100CB800007F07D1012045E04FF0B042126812F4DE
:100CC800806F42D04FF0B0418A6822F0030213438C
:100CD8008B6000F0F7F806464FF0B0439B6803F0CE
:100CE8000C036A68B3EB820F08D000F0EBF8801BA6
:100CF80041F288339842EFD9032023E0144B1B6854
:100D080003F00703A34215D9114A136823F0070318
:100D18002343136000F0D6F805460D4B1B6803F01B
:100D28000703A34206D000F0CDF8401B0228F4D9EF
:100D3800032007E0FFF7BEFB064B1860064B186858
:100D480000F076F870BD012070470120FAE700BF77
:100D5800004000580800002004000020002808DB9C
:100D68000901C9B200F1604000F5614080F8001344
:100D7800704700F00F000901C9B2014B19547047C0
:100D880014ED00E000B500F00700C0F1070CBCF15D
:100D9800040F28BF4FF0040C031D062B0FD9C31EE8
:100DA8004FF0FF3E0EFA0CF021EA000199400EFACE
:100DB80003FE22EA0E0241EA02005DF804FB00236A
:100DC800EEE70000074AD36823F4E0631B041B0C1A
:100DD800000200F4E060034343F0BF6343F40033D0
:100DE800D360704700ED00E010B50446054BD868A5
:100DF800C0F30220FFF7C6FF01462046FFF7AEFF0B
:100E080010BD00BF00ED00E00138B0F1807F0BD2CB
:100E18004FF0E0235861054AF02182F823100020A2
:100E2800986107221A6170470120704700ED00E0C1
:100E3800114B1B780BB90120704710B50446FFF71A
:100E480039FB0D4B1A784FF47A73B3FBF2F3B0FB0E
:100E5800F3F0FFF7D9FF68B90F2C01D901200AE098
:100E6800002221464FF0FF30FFF7BEFF034B1C6006
:100E7800002000E0012010BD000000200400002038
:100E880010B50320FFF79EFFFFF714FB064B186011
:100E98000F20FFF7CDFF10B10124204610BD0446F6
:100EA800FFF7EFF9F9E700BF08000020034B1B78B4
:100EB800034A11680B441360704700BF000000200C
:100EC8002C000020014B1868704700BF2C00002040
:100ED800704700000D488546FFF7FAFF0C480D499A
:100EE8000D4A002302E0D458C4500433C4188C427D
:100EF800F9D30A4A0A4C002301E013600432A242E3
:100F0800FBD300F019F8FFF7A7F9FEE700800020EF
:100F180000000020100000205010000810000020E1
:100F280030000020FEE702440346934200D1704798
:100F380003F8011BF9E7000070B50D4D0D4C641B5B
:100F4800A4100026A64209D10B4D0C4C00F018F84D
:100F5800641BA4100026A64205D170BD55F8043BB9
:100F680098470136EEE755F8043B98470136F2E713
:100F78004010000840100008401000084410000805
:100F8800F8B500BFF8BC08BC9E467047F8B500BF6E
:080F9800F8BC08BC9E4670473E
:100FA000120024003000000006000C0010000000B9
:100FB000000000000100000002000000A086010007
:100FC000400D0300801A060000350C0040420F005F
:100FD00080841E0000093D0000127A000024F40005
:100FE00000366E010048E801006CDC0200000000E1
:100FF00000000000000000000000000001000000F0
:1010000003000000050000000100000001000000D6
:10101000060000000A00000020000000020000009E
:101020000400000008000000100000004000000064
:10103000800000000001000000020000000000002D
:08104000A101000800000000FE
:0810480079010008000000001E
:10105000010000001000000000093D000000000039
:0400000508000EDD04
:00000001FF
